{
  "contractName": "Rent",
  "abi": [
    {
      "constant": false,
      "inputs": [
        {
          "name": "contractHash",
          "type": "string"
        }
      ],
      "name": "receiveFunds",
      "outputs": [],
      "payable": false,
      "stateMutability": "nonpayable",
      "type": "function"
    },
    {
      "constant": false,
      "inputs": [],
      "name": "kill",
      "outputs": [],
      "payable": false,
      "stateMutability": "nonpayable",
      "type": "function"
    },
    {
      "constant": false,
      "inputs": [
        {
          "name": "contractHash",
          "type": "string"
        },
        {
          "name": "landlord",
          "type": "address"
        },
        {
          "name": "tenant",
          "type": "address"
        },
        {
          "name": "monthlyPayment",
          "type": "uint256"
        },
        {
          "name": "suretyValue",
          "type": "uint256"
        },
        {
          "name": "finePerBlock",
          "type": "uint256"
        },
        {
          "name": "serviceFee",
          "type": "uint256"
        },
        {
          "name": "agreementDeadline",
          "type": "uint256"
        }
      ],
      "name": "createAgreement",
      "outputs": [],
      "payable": false,
      "stateMutability": "nonpayable",
      "type": "function"
    },
    {
      "constant": false,
      "inputs": [
        {
          "name": "contractHash",
          "type": "string"
        }
      ],
      "name": "paySurety",
      "outputs": [],
      "payable": true,
      "stateMutability": "payable",
      "type": "function"
    },
    {
      "constant": false,
      "inputs": [
        {
          "name": "contractHash",
          "type": "string"
        }
      ],
      "name": "payRent",
      "outputs": [],
      "payable": true,
      "stateMutability": "payable",
      "type": "function"
    },
    {
      "constant": true,
      "inputs": [
        {
          "name": "contractHash",
          "type": "string"
        }
      ],
      "name": "checkFunds",
      "outputs": [
        {
          "name": "",
          "type": "uint256"
        }
      ],
      "payable": false,
      "stateMutability": "view",
      "type": "function"
    },
    {
      "inputs": [],
      "payable": false,
      "stateMutability": "nonpayable",
      "type": "constructor"
    },
    {
      "payable": true,
      "stateMutability": "payable",
      "type": "fallback"
    }
  ],
  "bytecode": "0x6060604052341561000f57600080fd5b336000806101000a81548173ffffffffffffffffffffffffffffffffffffffff021916908373ffffffffffffffffffffffffffffffffffffffff160217905550610d8c8061005e6000396000f300606060405260043610610078576000357c0100000000000000000000000000000000000000000000000000000000900463ffffffff16806311d542391461007a57806341c0e1b5146100d757806344946b25146100ec5780635503ef0b146101b45780637bef444c14610206578063eaad3c3d14610258575b005b341561008557600080fd5b6100d5600480803590602001908201803590602001908080601f016020809104026020016040519081016040528093929190818152602001838380828437820191505050505050919050506102c9565b005b34156100e257600080fd5b6100ea610725565b005b34156100f757600080fd5b6101b2600480803590602001908201803590602001908080601f0160208091040260200160405190810160405280939291908181526020018383808284378201915050505050509190803573ffffffffffffffffffffffffffffffffffffffff1690602001909190803573ffffffffffffffffffffffffffffffffffffffff169060200190919080359060200190919080359060200190919080359060200190919080359060200190919080359060200190919050506107ba565b005b610204600480803590602001908201803590602001908080601f016020809104026020016040519081016040528093929190818152602001838380828437820191505050505050919050506109e3565b005b610256600480803590602001908201803590602001908080601f01602080910402602001604051908101604052809392919081815260200183838082843782019150505050505091905050610b9f565b005b341561026357600080fd5b6102b3600480803590602001908201803590602001908080601f01602080910402602001604051908101604052809392919081815260200183838082843782019150505050505091905050610ce8565b6040518082815260200191505060405180910390f35b806001816040518082805190602001908083835b60208310151561030257805182526020820191506020810190506020830392506102dd565b6001836020036101000a038019825116818451168082178552505050505050905001915050908152602001604051809103902060000160009054906101000a900473ffffffffffffffffffffffffffffffffffffffff1673ffffffffffffffffffffffffffffffffffffffff163373ffffffffffffffffffffffffffffffffffffffff1614151561039257600080fd5b60006001836040518082805190602001908083835b6020831015156103cc57805182526020820191506020810190506020830392506103a7565b6001836020036101000a03801982511681845116808217855250505050505090500191505090815260200160405180910390206008015411806104f65750436001836040518082805190602001908083835b602083101515610443578051825260208201915060208101905060208303925061041e565b6001836020036101000a0380198251168184511680821785525050505050509050019150509081526020016040518091039020600901541080156104f5575060006001836040518082805190602001908083835b6020831015156104bc5780518252602082019150602081019050602083039250610497565b6001836020036101000a038019825116818451168082178552505050505050905001915050908152602001604051809103902060040154115b5b151561050157600080fd5b6001826040518082805190602001908083835b6020831015156105395780518252602082019150602081019050602083039250610514565b6001836020036101000a038019825116818451168082178552505050505050905001915050908152602001604051809103902060000160009054906101000a900473ffffffffffffffffffffffffffffffffffffffff1673ffffffffffffffffffffffffffffffffffffffff166108fc6001846040518082805190602001908083835b6020831015156105e157805182526020820191506020810190506020830392506105bc565b6001836020036101000a0380198251168184511680821785525050505050509050019150509081526020016040518091039020600801546001856040518082805190602001908083835b602083101515610650578051825260208201915060208101905060208303925061062b565b6001836020036101000a038019825116818451168082178552505050505050905001915050908152602001604051809103902060040154019081150290604051600060405180830381858888f1935050505015156106ad57600080fd5b60006001836040518082805190602001908083835b6020831015156106e757805182526020820191506020810190506020830392506106c2565b6001836020036101000a0380198251168184511680821785525050505050509050019150509081526020016040518091039020600801819055505050565b6000809054906101000a900473ffffffffffffffffffffffffffffffffffffffff1673ffffffffffffffffffffffffffffffffffffffff163373ffffffffffffffffffffffffffffffffffffffff1614151561078057600080fd5b6000809054906101000a900473ffffffffffffffffffffffffffffffffffffffff1673ffffffffffffffffffffffffffffffffffffffff16ff5b6000809054906101000a900473ffffffffffffffffffffffffffffffffffffffff1673ffffffffffffffffffffffffffffffffffffffff163373ffffffffffffffffffffffffffffffffffffffff1614151561081557600080fd5b610140604051908101604052808873ffffffffffffffffffffffffffffffffffffffff1681526020018773ffffffffffffffffffffffffffffffffffffffff168152602001868152602001858152602001600081526020018481526020016000815260200183815260200160008152602001828152506001896040518082805190602001908083835b6020831015156108c3578051825260208201915060208101905060208303925061089e565b6001836020036101000a038019825116818451168082178552505050505050905001915050908152602001604051809103902060008201518160000160006101000a81548173ffffffffffffffffffffffffffffffffffffffff021916908373ffffffffffffffffffffffffffffffffffffffff16021790555060208201518160010160006101000a81548173ffffffffffffffffffffffffffffffffffffffff021916908373ffffffffffffffffffffffffffffffffffffffff16021790555060408201518160020155606082015181600301556080820151816004015560a0820151816005015560c0820151816006015560e08201518160070155610100820151816008015561012082015181600901559050505050505050505050565b806001816040518082805190602001908083835b602083101515610a1c57805182526020820191506020810190506020830392506109f7565b6001836020036101000a038019825116818451168082178552505050505050905001915050908152602001604051809103902060010160009054906101000a900473ffffffffffffffffffffffffffffffffffffffff1673ffffffffffffffffffffffffffffffffffffffff163373ffffffffffffffffffffffffffffffffffffffff16141515610aac57600080fd5b346001836040518082805190602001908083835b602083101515610ae55780518252602082019150602081019050602083039250610ac0565b6001836020036101000a038019825116818451168082178552505050505050905001915050908152602001604051809103902060030154141515610b2857600080fd5b346001836040518082805190602001908083835b602083101515610b615780518252602082019150602081019050602083039250610b3c565b6001836020036101000a0380198251168184511680821785525050505050509050019150509081526020016040518091039020600401819055505050565b806001816040518082805190602001908083835b602083101515610bd85780518252602082019150602081019050602083039250610bb3565b6001836020036101000a038019825116818451168082178552505050505050905001915050908152602001604051809103902060010160009054906101000a900473ffffffffffffffffffffffffffffffffffffffff1673ffffffffffffffffffffffffffffffffffffffff163373ffffffffffffffffffffffffffffffffffffffff16141515610c6857600080fd5b346001836040518082805190602001908083835b602083101515610ca15780518252602082019150602081019050602083039250610c7c565b6001836020036101000a0380198251168184511680821785525050505050509050019150509081526020016040518091039020600801600082825401925050819055505050565b60006001826040518082805190602001908083835b602083101515610d225780518252602082019150602081019050602083039250610cfd565b6001836020036101000a03801982511681845116808217855250505050505090500191505090815260200160405180910390206008015490509190505600a165627a7a723058202f50b6499e848d25fecb938c9913672bd25746c4ae312180f99aadb84924298c0029",
  "source": "pragma solidity ^0.4.4;\n\ncontract Rent {\n    address contractOwner;\n    mapping(string => Agreement) agreements;\n\n    modifier onlyOwner() {\n        require(msg.sender == contractOwner);\n        _;\n    }\n\n    modifier onlyTenant(string contractHash) {\n        require(msg.sender == agreements[contractHash].tenant);\n        _;\n    }\n\n    modifier onlyLandlord(string contractHash) {\n        require(msg.sender == agreements[contractHash].landlord);\n        _;\n    }\n\n    struct Agreement {\n        address landlord; // propetario/locador\n        address tenant; // inquilino/locatário\n        uint monthlyPayment;\n        uint suretyValue;\n        uint seretyPayed;\n        uint finePerBlock;\n        uint nextDeadline;\n        uint serviceFee;\n        uint fund;\n        uint agreementDeadline;\n    }\n\n    function Rent() {\n        contractOwner = msg.sender;\n    }\n\n    function createAgreement(string contractHash, address landlord, address tenant, uint monthlyPayment, uint suretyValue, uint finePerBlock, uint serviceFee, uint agreementDeadline) public onlyOwner {\n        agreements[contractHash] = Agreement(landlord, tenant, monthlyPayment, suretyValue, 0, finePerBlock, 0, serviceFee, 0, agreementDeadline);\n    }\n\n    function paySurety(string contractHash) public onlyTenant(contractHash) payable {\n        // require(agreements[contractHash].agreementDeadline > block.number);\n        require(agreements[contractHash].suretyValue == msg.value);\n        agreements[contractHash].seretyPayed = msg.value;\n    }\n\n    function payRent(string contractHash) public onlyTenant(contractHash) payable {\n        // require(agreements[contractHash].agreementDeadline > block.number);\n        // require(agreements[contractHash].suretyValue == agreements[contractHash].seretyPayed);\n        // require(agreements[contractHash].tenant == msg.sender);\n        // if (agreements[contractHash].nextDeadline >= block.number) {\n        //     require(msg.value == agreements[contractHash].monthlyPayment);\n        //     agreements[contractHash].fund += msg.value;\n        //     agreements[contractHash].nextDeadline = block.number + 185000;\n        // } else {\n        //     require(msg.value == (agreements[contractHash].monthlyPayment + (agreements[contractHash].finePerBlock * (block.number - agreements[contractHash].nextDeadline))));\n        //     agreements[contractHash].fund += msg.value;\n        //     agreements[contractHash].nextDeadline = block.number + 185000;\n        // }\n        agreements[contractHash].fund += msg.value;\n    }\n\n    function receiveFunds(string contractHash) public onlyLandlord(contractHash) {\n        require(agreements[contractHash].fund > 0 || (agreements[contractHash].agreementDeadline < block.number && agreements[contractHash].seretyPayed > 0));\n        agreements[contractHash].landlord.transfer(agreements[contractHash].seretyPayed + agreements[contractHash].fund);\n        agreements[contractHash].fund = 0;\n    }\n\n    function checkFunds(string contractHash) constant public returns(uint) {\n        return agreements[contractHash].fund;\n    }\n\n    function kill() public onlyOwner {\n        suicide(contractOwner);\n    }\n\n    function() payable { }\n}\n",
  "sourcePath": "/home/rnato/workspace/abramit-front/contracts/Rent.sol",
  "compiler": {
    "name": "solc",
    "version": "0.4.18+commit.9cf6e910.Emscripten.clang"
  },
  "schemaVersion": "1.0.1",
  "updatedAt": "2017-11-15T13:18:06.884Z"
}